:060000000A128A110C280F
:10000800FE00030EF0000A08F1000A128A150628FD
:100018000A128A110F28FB018313D0308400EF30B5
:100028000A168A159D210A128A1183010A128A1555
:100038003228831603134808F5004708F4004608D9
:10004800F3004508F2000030F9000030F8000030F5
:10005800F7000030F6000A168A1593230A128A114F
:10006800031837283828E028831603134808831212
:100078000313D80083160313470883120313D7000A
:1000880083160313460883120313D600831603133B
:10009800450883120313D5000A168A1519260A1271
:1000A8008A11831203135808570456045504031D74
:1000B8005E285F28E028831603133B08803AFF0078
:1000C80080307F02031D6A2802303A02031C6D2823
:1000D8006E28E028831603133F08F5003E08F40055
:1000E8003D08F3003C08F2004030F9008930F80080
:1000F8007030F7005F30F6000A168A11C1200A1224
:100108008A110318882889289228F7308316031340
:10011800BA070318BB0AFF30BB079A28F8308316C2
:100128000313BA070318BB0AFF30BB073A080A12C1
:100138008A159D240A128A1183120313450883160F
:100148000313BF0083120313440883160313BE006E
:1001580083120313430883160313BD00831203138A
:10016800420883160313BC004808F5004708F4004A
:100178004608F3004508F2003F08F9003E08F80079
:100188003D08F7003C08F6000A168A1548270A12A7
:100198008A11750883160313C3007408C200730814
:1001A800C1007208C0000030C8000030C70000302D
:1001B800C6000030C5004629831603134808831279
:1001C8000313D80083160313470883120313D700B9
:1001D80083160313460883120313D60083160313EA
:1001E800450883120313D5000A168A1519260A1220
:1001F8008A1183120313580883160313C30083124A
:100208000313570883160313C200831203135608F7
:1002180083160313C10083120313550883160313AF
:10022800C0004308F5004208F4004108F300400804
:10023800F20000300A168A1165210A128A1175081F
:1002480083160313A3007408A2007308A1007208A0
:10025800A0004808A7004708A6004608A5004508CA
:10026800A4000A168A15E3230A128A1183160313B7
:100278002308C8002208C7002108C6002008C500B6
:10028800BA01BB01CB01CB0A4B0883120313EA0066
:1002980001300310EA0DFF3E031D4D2903106A0DBE
:1002A800693E84000A168A110A200A128A11EB0094
:1002B8000A168A110A200A128A11EC000A168A11F3
:1002C8000A200A128A11ED000A168A110A200A1257
:1002D8008A11EE006E08831603134302031D8A2950
:1002E800831203136D08831603134202031D8A2920
:1002F800831203136C08831603134102031D8A2912
:10030800831203136B0883160313400203188D2905
:100318008E298F299D29013083120313EA006A0868
:1003280083160313CB070A304B06031D9C299D290E
:1003380048290330380583120313EA000030831676
:100348000313390583120313EB006A086B040319BE
:10035800AE29AF294B2A83160313440884002D3095
:1003680083138000013083120313EA006A0883169E
:100378000313C4074B2A4B0883120313EA00013006
:100388000310EA0DFF3E031DC42903106A0D693EE0
:1003980084000A168A110A200A128A11F2000A1623
:1003A8008A110A200A128A11F3000A168A110A20F1
:1003B8000A128A11F4000A168A110A200A128A11EE
:1003C800F500831603134308F9004208F8004108B2
:1003D800F7004008F6000A168A1548250A128A11FD
:1003E800750883160313BF007408BE007308BD00A8
:1003F8007208BC00003083120313A8000030A70065
:100408000030A6000A30A500831603133F088312A4
:100418000313AC00831603133E0883120313AB00C7
:10042800831603133D0883120313AA0083160313CC
:100438003C0883120313A9000A168A1533240A12EA
:100448008A1183120313280883160313BF0083122B
:100458000313270883160313BE0083120313260809
:1004680083160313BD008312031325088316031391
:10047800BC00440884003C08303E831380000130EF
:1004880083120313EA006A0883160313C4070130B2
:1004980083160313CB024B0A031D532A542ABF2980
:1004A8006A2A8316031344088400303083138000BB
:1004B800013083120313EA006A0883160313C40782
:1004C800FF30BA070318BB0AFF30BB073B08803A66
:1004D800FF0080307F02031D732A01303A0203189F
:1004E800762A772A552A831603134A08803AFF008A
:1004F80080307F02031D822A09304902031C852AA5
:10050800862A8B2A083083160313CB008F2A83167A
:1005180003134908CB004B0883120313EA00EB01CD
:100528006A0883160313C902831203136B08831620
:100538000313031CCA03CA024B080319A42AA52AD9
:10054800B22A440884002E308313800001308312BD
:100558000313EA006A0883160313C4074B080A1238
:100568008A159D240A128A118312031345088316DB
:100578000313B60083120313440883160313B5004C
:1005880083120313430883160313B400831203135F
:10059800420883160313B300360883120313AF000F
:1005A80083160313350883120313AE00831603134F
:1005B800340883120313AD00831603133308831220
:1005C8000313AC0083160313480883120313AB000C
:1005D80083160313470883120313AA008316031311
:1005E800460883120313A9008316031345088312D0
:1005F8000313A8000A128A1558210A128A118312B5
:1006080003132B08D8002A08D7002908D600280881
:10061800D5000A168A1519260A128A11831203139D
:10062800580883160313C30083120313570883164D
:100638000313C20083120313560883160313C10061
:1006480083120313550883160313C000122C4B089A
:1006580083120313EA0001300310EA0DFF3E031D65
:10066800302B03106A0D693E84000A168A110A208D
:100678000A128A11F2000A168A110A200A128A112D
:10068800F3000A168A110A200A128A11F4000A16BF
:100698008A110A200A128A11F500831603134308E7
:1006A800F9004208F8004108F7004008F6000A1669
:1006B8008A1548250A128A11750883160313BF0084
:1006C8007408BE007308BD007208BC0000308312B5
:1006D8000313A8000030A7000030A6000A30A500C8
:1006E800831603133F0883120313AC008316031306
:1006F8003E0883120313AB00831603133D088312CD
:100708000313AA00831603133C0883120313A900DA
:100718000A168A1533240A128A1183120313280829
:1007280083160313BF0083120313270883160313CA
:10073800BE0083120313260883160313BD00831219
:100748000313250883160313BC00440884003C08DF
:10075800303E83138000013083120313EA006A08D5
:1007680083160313C4074B0883120313EA000130EE
:100778000310EA0DFF3E031DBC2B03106A0D693EF2
:1007880084000A168A110A200A128A11A5000A167C
:100798008A110A200A128A11A6000A168A110A204A
:1007A8000A128A11A7000A168A110A200A128A1147
:1007B800A80083160313430883120313AC0083169F
:1007C8000313420883120313AB0083160313410873
:1007D80083120313AA00831603134008831203131A
:1007E800A9000A168A1533240A128A1183120313E0
:1007F800280883160313C3008312031327088316DC
:100808000313C20083120313260883160313C100BF
:1008180083120313250883160313C0000130CB028B
:100828004B0A031D182C192C2B2B2D2C4408840043
:10083800303083138000013083120313EA006A0802
:1008480083160313C407FF30C9070318CA0AFF3009
:10085800CA0749084A04031D322C332C1A2C962D3A
:1008680083160313370884008313000883120313C5
:10087800EA00840A0008EB006A0883160313C00024
:10088800831203136B0883160313C1000030C11BC6
:10089800FF30C200C300023083120313EA006A0863
:1008A80083160313B707C31F5A2C5B2C6A2C03301B
:1008B800B8040030B904C009C109C209C309C00A93
:1008C8000319C10A0319C20A0319C30A49084A04C9
:1008D800031D6F2C702C7E2C4308420441044004F5
:1008E800031D772C782C7E2C0130C9070318CA0AFF
:1008F8000030CA07CB01CB0A4B0883120313EA0066
:1009080001300310EA0DFF3E031D852C03106A0D0C
:10091800693E84000A168A110A200A128A11EB001D
:100928000A168A110A200A128A11EC000A168A117C
:100938000A200A128A11ED000A168A110A200A12E0
:100948008A11EE006E08831603134302031DC22C9E
:10095800831203136D08831603134202031DC22C6E
:10096800831203136C08831603134102031DC22C60
:10097800831203136B088316031340020318C52C54
:10098800C62CC72CD52C013083120313EA006A0841
:1009980083160313CB070A304B06031DD42CD52C22
:1009A800802C4A08803A803C031DDC2C49084B0205
:1009B8000318DF2CE02CE12C052D831603134A08BD
:1009C800803A83120313EA0080306A02031DF02C78
:1009D800831603134B0849020318F32CF42C052D36
:1009E800831603134B0883120313EA00EB016A080A
:1009F80083160313C900831203136B0883160313AA
:100A0800CA00033083160313380583120313EA0060
:100A1800003083160313390583120313EB006A08A9
:100A28006B040319182D192D862D831603134408FA
:100A380084002D3083138000013083120313EA00F1
:100A48006A0883160313C407862D00308312031324
:100A5800A8000030A7000030A6000A30A5008316C1
:100A68000313490883120313EA0001300310EA0D47
:100A7800FF3E031D3A2D03106A0D693E84000A16D5
:100A88008A110A200A128A11F2000A168A110A200B
:100A98000A128A11F3000A168A110A200A128A1108
:100AA800F4000A168A110A200A128A11F500831620
:100AB80003134308F9004208F8004108F70040080A
:100AC800F6000A168A1548250A128A117508831233
:100AD8000313AC007408AB007308AA007208A900DD
:100AE8000A168A1533240A128A1183120313250859
:100AF800303E83160313CB00440884004B0883134D
:100B08008000202DFF3083160313C9070318CA0A73
:100B1800FF30CA07490A031D952D4A0A031D952D62
:100B2800962D292D013083160313A807FF302807B7
:100B380084000A168A110A200A128A11CB004B086F
:100B4800031DA72DAA2D0A168A11682D83160313D3
:100B58004408840083138001080083120313D5001E
:100B68006E305502031CB92DBA2DC92E3F30AB008B
:100B78000030AA000030A9000030A8006430A000AE
:100B88000030A1005508C600C7014608A200470862
:100B9800A3000A168A154D230A128A118312031319
:100BA8002008C80001300310C80DFF3E031DD72DD3
:100BB8000310480D7D3E84000A168A110A200A1285
:100BC8008A11C9000A168A110A200A128A11CA0053
:100BD8000A168A110A200A128A11CB000A168A11EB
:100BE8000A200A128A11CC004C08AF004B08AE004C
:100BF8004A08AD004908AC000A128A1558210A12A1
:100C08008A11831203132B08D4002A08D300290859
:100C1800D2002808D1000A30A0000030A1005508F1
:100C2800C600C7014608F4004708F5006430F20022
:100C38000030F3000A168A15CD220A128A117308A9
:100C480083120313A3007208A2000A168A154D2303
:100C58000A128A11831203132008C80001300310F6
:100C6800C80DFF3E031D332E0310480D593E840066
:100C78000A168A110A200A128A11C9000A168A114C
:100C88000A200A128A11CA000A168A110A200A12B0
:100C98008A11CB000A168A110A200A128A11CC007E
:100CA8004C08AB004B08AA004A08A9004908A8004C
:100CB8005408AF005308AE005208AD005108AC000C
:100CC8000A128A1558210A128A11831203132B0853
:100CD800D0002A08CF002908CE002808CD000A3005
:100CE800F2000030F3005508C600C7014608F400BA
:100CF8004708F5000A168A15CD220A128A117208C9
:100D080083120313C80001300310C80DFF3E031DF2
:100D1800882E0310480D353E84000A168A110A20D1
:100D28000A128A11C9000A168A110A200A128A119F
:100D3800CA000A168A110A200A128A11CB000A165A
:100D48008A110A200A128A11CC004C08AB004B0801
:100D5800AA004A08A9004908A8005008AF004F088F
:100D6800AE004E08AD004D08AC000A128A15582195
:100D78000A128A11831203132B08C5002A08C4001B
:100D88002908C3002808C200BD2F0B305502031CD8
:100D9800CE2ECF2E7A2F3F30AB000030AA00003085
:100DA800A9000030A8000A30A0000030A1005508B2
:100DB800C600C7014608A2004708A3000A168A15FC
:100DC8004D230A128A11831203132008C800013028
:100DD8000310C80DFF3E031DEC2E0310480D593EAD
:100DE80084000A168A110A200A128A11C9000A16F2
:100DF8008A110A200A128A11CA000A168A110A20C0
:100E08000A128A11CB000A168A110A200A128A11BC
:100E1800CC004C08AF004B08AE004A08AD004908AA
:100E2800AC000A128A1558210A128A118312031378
:100E38002B08D4002A08D3002908D2002808D1009A
:100E48000A30F2000030F3005508C600C701460812
:100E5800F4004708F5000A168A15CD220A128A11ED
:100E6800720883120313C80001300310C80DFF3E37
:100E7800031D392F0310480D353E84000A168A11C8
:100E88000A200A128A11C9000A168A110A200A12AF
:100E98008A11CA000A168A110A200A128A11CB007E
:100EA8000A168A110A200A128A11CC004C08AB00D3
:100EB8004B08AA004A08A9004908A8005408AF002E
:100EC8005308AE005208AD005108AC000A128A154A
:100ED80058210A128A11831203132B08C5002A0805
:100EE800C4002908C3002808C200BD2F3F30AB004A
:100EF8000030AA000030A9000030A8005508C6003C
:100F080001300310C60DFF3E031D852F0310460D4B
:100F1800353E84000A168A110A200A128A11C7006F
:100F28000A168A110A200A128A11C8000A168A119A
:100F38000A200A128A11C9000A168A110A200A12FE
:100F48008A11CA004A08AF004908AE004808AD0037
:100F58004708AC000A128A1558210A128A1183120E
:100F680003132B08C5002A08C4002908C300280851
:100F7800C2000800F200721CC22FC32FC72F8312B1
:100F880003130814CA2F831203130810F21CCD2F61
:100F9800CE2FD02F8814D12F8810721DD42FD52F83
:100FA800D72F0815D82F0811F21DDB2FDC2FDE2FC5
:100FB8008815DF2F8811721EE22FE32FE52F081600
:100FC800E62F0812F21EE92FEA2FEC2F8816ED2FD4
:100FD8008812721FF02FF12FF32F0817F42F081320
:100FE800F21FF72FF82FFA2F8817FB2F8813080006
:1010020019308316031399000800831203138C1EF0
:101012000B280C282B288C120A168A158D210A12ED
:101022008A15FB002B307B06031D182819281F2860
:10103200831603135808013ED8002B282D307B0657
:10104200031D242825282B28831603135808FF3E46
:10105200D8002B2871088A00700E8300FE0E7E0EC7
:1010620009000A168A1523220A128A150A128A15FB
:1010720001200A128A150A168A15C7210A128A1530
:101082000A168A1595210A128A150A168A15E22469
:101092000A128A150A168A15BA210A128A150A161E
:1010A2008A15BA210A128A15F601F60A01300A16C1
:1010B2008A1561220A128A159130F5008030F600F5
:1010C2000A168A1507230A128A1500300A168A118F
:1010D2001F220A128A1583160313DA0001300A1638
:1010E2008A111F220A128A1583160313D9003C3073
:1010F20083120313AB00A030AA009030A9002E3057
:10110200A800831603135A08CC00CD01CE01CF01EB
:101112004F08F5004E08F4004D08F3004C08F200A9
:1011220001300A168A1165210A128A15750883127E
:101132000313AF007408AE007308AD007208AC0070
:101142000A128A1558210A128A15831203132B08D0
:1011520083160313D700831203132A08831603137B
:10116200D60083120313290883160313D5008312B2
:101172000313280883160313D4003C30831203138D
:10118200AB00A030AA009030A9002E30A800831630
:1011920003135908CC00CD01CE01CF014F08F50051
:1011A2004E08F4004D08F3004C08F20001300A1614
:1011B2008A1165210A128A15750883120313AF007A
:1011C2007408AE007308AD007208AC000A128A15EA
:1011D20058210A128A15831203132B08831603134C
:1011E200D300831203132A0883160313D200831237
:1011F2000313290883160313D1008312031328084B
:1012020083160313D000A030A8005708AC0056087C
:10121200AB005508AA005408A9005308B0005208B0
:10122200AF005108AE005008AD005808CC00CD0107
:101232004C08B1004D08B200DB300A168A11602555
:101242000A128A15F601F60A02300A168A15612276
:101252000A128A15DB30F5000030F6000A168A15EC
:1012620007230A128A15DB300A168A1505220A128A
:101272008A1503300A168A15A5210A128A150A3020
:101282000A168A15A5210A128A150230831603133B
:10129200CE004530CD00A930CC00CC0B4E29CD0B71
:1012A2004E29CE0B4E2950280A128A110C2883127D
:1012B20003132B088039B5002B08B0003007BB00A0
:1012C200AA1F6429652966293B143B0803196A2968
:1012D2006B297A293B0A031D6F297029782900306E
:1012E200AB000030AA000030A9000030A800AA1705
:1012F20082290030AB000030AA000030A900003083
:10130200A8002F088039B0003008B5062F08B000B9
:101312003007BA00AE1F8E298F2990293A143A0855
:10132200031994299529A4293A0A031D99299A296E
:10133200A2290030AF000030AE000030AD00003016
:10134200AC00AE17AC290030AF000030AE00003068
:10135200AD000030AC003A080319B029B129B62912
:101362003B08031DB529B629BF290030AB00003068
:10137200AA000030A9000030A8009C2C2808F20026
:101382002E080A168A15A6220A128A1573088312D3
:101392000313C1007208C0004008B000B101B201DD
:1013A200B3013308B9003208B8003108B700300879
:1013B200B6004108B000B101B201B3013308BF0069
:1013C2003208BE003108BD003008BC002908F20016
:1013D2002D080A168A15A6220A128A157308831284
:1013E2000313C1007208C0004008B000B101B2018D
:1013F200B3013008B607310803110318013E03197F
:10140200032AB707320803110318013E03190A2AF7
:10141200B807330803110318013E0319112AB9074B
:101422004108B000B101B201B3013008BC07310874
:1014320003110318013E03191F2ABD0732080311C5
:101442000318013E0319262ABE07330803110318A5
:10145200013E03192D2ABF072A08F2002C080A169A
:101462008A15A6220A128A15730883120313C10071
:101472007208C0004008B000B101B201B3013008E7
:10148200B607310803110318013E0319492AB707A9
:10149200320803110318013E0319502AB807330812
:1014A20003110318013E0319572AB9074108B00076
:1014B200B101B201B3013008BC07310803110318AE
:1014C200013E0319652ABD07320803110318013EC4
:1014D20003196C2ABE07330803110318013E0319CE
:1014E200732ABF070830B0000310B60DB70DB80D50
:1014F200B90DB00B752A2908F2002C080A168A15B4
:10150200A6220A128A15730883120313C1007208F5
:10151200C0004008B0004108B100B201B301300878
:10152200B607310803110318013E0319992AB707B8
:10153200320803110318013E0319A02AB807330821
:1015420003110318013E0319A72AB9072808F2005C
:101552002D080A168A15A6220A128A157308831202
:101562000313C1007208C0004008B0004108B10076
:10157200B201B3013008B607310803110318013E66
:101582000319C42AB707320803110318013E0319CD
:10159200CB2AB807330803110318013E0319D22AD4
:1015A200B9070830B0000310B60DB70DB80DB90D6C
:1015B200B00BD42A2808F2002C080A168A15A62293
:1015C2000A128A15730883120313C1007208C0003D
:1015D2004008B0004108B100B201B3013008B607BB
:1015E200310803110318013E0319F82AB70732081C
:1015F20003110318013E0319FF2AB8073308031128
:101602000318013E0319062BB9072908F2002E0818
:101612000A168A15A6220A128A1573088312031360
:10162200C1007208C0004008B0004108B100B20118
:10163200B3013008BC07310803110318013E031936
:10164200232BBD07320803110318013E03192A2B6D
:10165200BE07330803110318013E0319312BBF07DC
:101662002A08F2002D080A168A15A6220A128A15DD
:10167200730883120313C1007208C0004008B0004F
:101682004108B100B201B3013008BC0731080311AF
:101692000318013E03194E2BBD073208031103182C
:1016A200013E0319552BBE07330803110318013EEF
:1016B20003195C2BBF072A08F2002E080A168A15A6
:1016C200A6220A128A15730883120313C100720834
:1016D200C0004008B0004108B100B201B3010830B7
:1016E2000310B00DB10DB20DB30DFF3E031D712BF2
:1016F2003008BC07310803110318013E0319822B7D
:10170200BD07320803110318013E0319892BBE07D6
:10171200330803110318013E0319902BBF07360843
:10172200B0003708B1003808B2003908B3001830E9
:101732000310B30CB20CB10CB00CFF3E031D992B7D
:101742003008BC07310803110318013E0319AA2B04
:10175200BD07320803110318013E0319B12BBE075E
:10176200330803110318013E0319B82BBF070830D1
:10177200B0000310B60DB70DB80DB90DB00BBA2BF2
:101782003B083A07B000B101B10D3008823EC000FB
:1017920031080318013EFF3EC100EC2B0130B000BE
:1017A2000310BC0DBD0DBE0DBF0DB00BD12BB91F6B
:1017B200DB2BDC2BDD2B3C140130B0000310B60D0B
:1017C200B70DB80DB90DB00BDF2BFF30C0070318F2
:1017D200C10AFF30C107BE1FEF2BF02BCF2BBA017E
:1017E200B91FF42BF52B112CFF303605B000FF305A
:1017F2003705B100FF303805B2007F303905B3003C
:1018020033083204310430040319082C092C0C2C3F
:10181200BA01BA0A112C3C1C0F2C102C112C092CC9
:101822003A080319152C162C472C0130BC0700303E
:1018320003180130BD07003003180130BE07003025
:1018420003180130BF073F1C272C282C472C3C08CB
:10185200B0003D08B1003E08B2003F08B3000130BD
:10186200B400330DB30CB20CB10CB00CB40B322C6F
:101872003308BF003208BE003108BD003008BC008A
:101882000130C0070318C10A0030C1074108803A7D
:10189200FF0080307F02031D502CFF304002031CEA
:1018A200532C542C5F2C7F3083120313BF008030E3
:1018B200BE000030BD000030BC00902C8312031328
:1018C2004108803AFF0080307F02031D6A2C0130FC
:1018D200400203186D2C6E2C7A2C003083120313F5
:1018E200BF000030BE000030BD000030BC00B501BA
:1018F200902C831203134008BB00FF30BC05FF305D
:10190200BD057F30BE050030BF053B1C892C8A2CEB
:101912008B2CBE173B08B0000310300CBF003508FB
:10192200B0003008BF043F08AB003E08AA003D08E3
:10193200A9003C08A800080083120313D400D41F96
:10194200A32CA42C532ED409D40A5408803A123E54
:10195200031CAC2CAD2C972D0A30A0000030A10046
:101962005408F400F501F41BF5036430F200003072
:10197200F3000A168A1589240A128A15730883123B
:101982000313A3007208A2000A168A15B0250A12D0
:101992008A15831203132008C60001300310C60DF6
:1019A200FF3E031DCF2C0310460D593E84000A163C
:1019B2008A110A200A128A15C7000A168A110A20F9
:1019C2000A128A15C8000A168A110A200A128A15F2
:1019D200C9000A168A110A200A128A15CA004A0880
:1019E200AB004908AA004808A9004708A8006430CB
:1019F200A0000030A1005408A200A301A21BA3036F
:101A02000A168A15B0250A128A15831203132008B2
:101A1200CB0001300310CB0DFF3E031D0B2D031035
:101A22004B0D7D3E84000A168A110A200A128A157D
:101A3200CC000A168A110A200A128A15CD000A164B
:101A42008A110A200A128A15CE000A168A110A2061
:101A52000A128A15CF004F08AF004E08AE004D089B
:101A6200AD004C08AC000A128A1558210A128A15D8
:101A7200831203132B08D3002A08D2002908D100AD
:101A82002808D0000A30F2000030F3005408F400B5
:101A9200F501F41BF5030A168A1589240A128A1520
:101AA200720883120313C60001300310C60DFF3EF5
:101AB200031D562D0310460D353E84000A168A1169
:101AC2000A200A128A15C7000A168A110A200A1267
:101AD2008A15C8000A168A110A200A128A15C90034
:101AE2000A168A110A200A128A15CA004A08AB008D
:101AF2004908AA004808A9004708A8005308AF00EF
:101B02005208AE005108AD005008AC000A128A1506
:101B120058210A128A15831203132B08C5002A08BA
:101B2200C4002908C3002808C200FF2F5408803AC5
:101B3200753E031C9D2D9E2D262E0A30F20000308C
:101B4200F3005408F400F501F41BF5030A168A1594
:101B520089240A128A15720883120313C6000130FF
:101B62000310C60DFF3E031DB12D0310460D353E79
:101B720084000A168A110A200A128A15C7000A1658
:101B82008A110A200A128A15C8000A168A110A2026
:101B92000A128A15C9000A168A110A200A128A151F
:101BA200CA004A08AB004908AA004808A900470829
:101BB200A8000A30A0000030A1005408A200A3012E
:101BC200A21BA3030A168A15B0250A128A158312CC
:101BD20003132008CB0001300310CB0DFF3E031D81
:101BE200ED2D03104B0D593E84000A168A110A206E
:101BF2000A128A15CC000A168A110A200A128A15BC
:101C0200CD000A168A110A200A128A15CE000A1677
:101C12008A110A200A128A15CF004F08AF004E0817
:101C2200AE004D08AD004C08AC000A128A155821CE
:101C32000A128A15831203132B08C5002A08C4004E
:101C42002908C3002808C200FF2F5408C60001302B
:101C52000310C60DFF3E031D292E0310460D353E0F
:101C620084000A168A110A200A128A15C7000A1667
:101C72008A110A200A128A15C8000A168A110A2035
:101C82000A128A15C9000A168A110A200A128A152E
:101C9200CA004A08C5004908C4004808C3004708EA
:101CA200C200FF2F5408803A123E031C592E5A2EAE
:101CB200442F0A30A0000030A1005408F400F501BE
:101CC200F41BF5036430F2000030F3000A168A15A3
:101CD20089240A128A15730883120313A300720857
:101CE200A2000A168A15B0250A128A158312031356
:101CF2002008C60001300310C60DFF3E031D7C2ED6
:101D02000310460D253E84000A168A110A200A1283
:101D12008A15C7000A168A110A200A128A15C800F3
:101D22000A168A110A200A128A15C9000A168A118D
:101D32000A200A128A15CA004A08AB004908AA00FA
:101D42004808A9004708A8006430A0000030A1009C
:101D52005408A200A301A21BA3030A168A15B025E8
:101D62000A128A15831203132008CB0001300310D4
:101D7200CB0DFF3E031DB82E03104B0D493E8400D0
:101D82000A168A110A200A128A15CC000A168A112A
:101D92000A200A128A15CD000A168A110A200A128E
:101DA2008A15CE000A168A110A200A128A15CF0055
:101DB2004F08AF004E08AE004D08AD004C08AC0015
:101DC2000A128A1558210A128A15831203132B0844
:101DD200D3002A08D2002908D1002808D0000A30EE
:101DE200F2000030F3005408F400F501F41BF5038F
:101DF2000A168A1589240A128A1572088312031395
:101E0200C60001300310C60DFF3E031D032F031051
:101E1200460D013E84000A168A110A200A128A150A
:101E2200C7000A168A110A200A128A15C8000A1661
:101E32008A110A200A128A15C9000A168A110A2072
:101E42000A128A15CA004A08AB004908AA004808C3
:101E5200A9004708A8005308AF005208AE00510875
:101E6200AD005008AC000A128A1558210A128A15D0
:101E7200831203132B08C5002A08C4002908C300D3
:101E82002808C200FF2F5408803A753E031C4A2FCF
:101E92004B2FD32F0A30F2000030F3005408F40025
:101EA200F501F41BF5030A168A1589240A128A150C
:101EB200720883120313C60001300310C60DFF3EE1
:101EC200031D5E2F0310460D013E84000A168A117F
:101ED2000A200A128A15C7000A168A110A200A1253
:101EE2008A15C8000A168A110A200A128A15C90020
:101EF2000A168A110A200A128A15CA004A08AB0079
:101F02004908AA004808A9004708A8000A30A0000A
:101F12000030A1005408A200A301A21BA3030A16C9
:101F22008A15B0250A128A15831203132008CB00E2
:101F320001300310CB0DFF3E031D9A2F03104B0DF2
:101F4200253E84000A168A110A200A128A15CC003C
:101F52000A168A110A200A128A15CD000A168A1157
:101F62000A200A128A15CE000A168A110A200A12BB
:101F72008A15CF004F08AF004E08AE004D08AD00E5
:101F82004C08AC000A128A1558210A128A158312CB
:101F920003132B08C5002A08C4002908C300280817
:101FA200C200FF2F5408C60001300310C60DFF3EC9
:101FB200031DD62F0310460D013E84000A168A1116
:101FC2000A200A128A15C7000A168A110A200A1262
:101FD2008A15C8000A168A110A200A128A15C9002F
:101FE2000A168A110A200A128A15CA004A08C5006E
:101FF2004908C4004808C3004708C2000800FF1B84
:102002000A2883137F1883170008840A0319FF0A1A
:10201200080010308A000408840A82070034003461
:10202200003480343F3400340034203441340034EE
:102032000034C8344234003400347A344434003436
:1020420040341C34463400345034C33447340034F2
:102052002434743449348034963418344B34203464
:10206200BC34BE344C3428346B346E344E34F934C0
:10207200023415345034EC347834AD346034CA341C
:10208200F234493471340034003480343F34CD3476
:10209200CC34CC343D340A34D73423343C346F341A
:1020A200123483343A341734B734D1343834AC343C
:1020B200C53427343734BD34373486343534953417
:1020C200BF34D63433347734CC342B3432345F34A7
:1020D200703489343034FF34E634DB342E3408343F
:1020E200E5343C341E3460344234A2340D340134BD
:1020F2000034003400340A340034003400346434D0
:10210200003400340034E834033400340034103432
:10211200273400340034A03486340134003440348F
:1021220042340F340034803496349834003400340E
:10213200E134F53405340034CA349A343B3456342D
:102142003134203420342034563432342034203494
:10215200203443344F344E345434003425342E3436
:10216200323466342034203425342E34323466340A
:0A2172002034203425346434003496
:102182000030720583120313A00000307305A10012
:1021920080307405A2007F307505A3002308220455
:1021A20021042004031DD628D728DF280030F5009B
:1021B2000030F4000030F3000030F2000030760509
:1021C200A00000307705A10080307805A2007F30A2
:1021D2007905A3002308220421042004031DF22808
:1021E200F328FB280030F9000030F8000030F70037
:1021F2000030F600F51FFE28FF2823290030A0003A
:102202000030A1000030A2008030A3007208A002BA
:102212007308031C730F0E290F29A1027408031CF3
:10222200740F14291529A2027508031C750F1A29A7
:102232001B29A3022308F5002208F4002108F30059
:102242002008F200F91F262927294B290030A00077
:102252000030A1000030A2008030A3007608A00266
:102262007708031C770F36293729A1027808031C47
:10227200780F3C293D29A2027908031C790F4229D3
:102282004329A3022308F9002208F8002108F700D5
:102292002008F6008030F5068030F90679087502CC
:1022A200031D5D2978087402031D5D2977087302F6
:1022B200031D5D29760872020318602961296329CA
:1022C200031064290314080083120313A0002008DA
:1022D20003196C296D298129F51F7029712981291A
:1022E2007209A2007309A3007409A4007509A5006C
:1022F200A20A0319A30A0319A40A0319A50A892920
:102302007508A5007408A4007308A3007208A2004F
:102312007508740473047204031D902991299A2983
:102322000030F5000030F4000030F3000030F2001D
:102332001E2A9630A100AA290130F6007608A107CC
:1023420001300310A50CA40CA30CA20CFF3E031D2C
:10235200A229FE302505031DAF29B0299D29CC29CC
:102362000130F6007608A1070130A20700300318F9
:102372000130A307003003180130A407003003180E
:102382000130A50701300310A50CA40CA30CA20C6C
:10239200FF3E031DC429FF302505031DD129D22983
:1023A200B129DE290130A1020130F6000310A20D8D
:1023B200A30DA40DA50DF60BD729A41BE129E22933
:1023C200E829023021020318E729E829D329211834
:1023D200EB29EC29F429FF30A205FF30A3057F3059
:1023E200A405FF30A5050310A10C2108F600F70192
:1023F200F801F90118300310F60DF70DF80DF90D7B
:10240200FF3E031DFC297608A2047708A30478087E
:10241200A4047908A50420080319102A112A162AEF
:10242200F51F142A152A162AA5172508F5002408CF
:10243200F4002308F3002208F2000800F4008312DB
:1024420003131F083F3940389F00831603139F016F
:10245200C42A0514831603170814C3308312031306
:102462009F05F82A85148316031788148312031311
:102472001F08C33904389F00F82A0515831603176D
:102482000815831203131F08C33908389F00F82A5E
:102492008515831603178815831203131F08C33982
:1024A2000C389F00F82A8516831603170816831224
:1024B20003131F08C33910389F00F82A0914831622
:1024C20003178816831203131F08C33914389F0099
:1024D200F82A8914831603170817831203131F0897
:1024E200C33918389F00F82A09158316031788176D
:1024F200831203131F08C3391C389F00F82A0615DC
:10250200831603170914831203131F08C3392038D3
:102512009F00F82A86158316031789148312031362
:102522001F08C33924389F00F82A8614831603171C
:102532000915831203131F08C33928389F00F82A8C
:102542000616831603178915831203131F08C3394E
:102552002C389F00F82A06148316031709168312D3
:1025620003131F08C33930389F00F82A86168316D2
:1025720003178916831203131F08C33934389F00C7
:10258200F82A0030072B7408F200F3017308003AAE
:102592000319CC2AC22A7208003A03192A2A013ADC
:1025A2000319332A033A03193E2A013A0319492A25
:1025B200073A0319542A013A03195F2A033A031905
:1025C2006A2A013A0319752A0F3A0319802A013A35
:1025D20003198B2A033A0319962A013A0319A12AED
:1025E200073A0319AC2A013A0319B72AC22A1F145F
:1025F2005330F200F20BFB2A831203139F149F1C29
:10260200032B042B052B002B1F101E08080083121E
:10261200031359088039E6005908DE005E07E80016
:10262200D81F142B152B162B6814680803191A2BA4
:102632001B2B2B2B680A031D1F2B202B282B003052
:10264200D9000030D8000030D7000030D600D817AB
:10265200D901332B0030D9000030D8000030D70028
:102662000030D6005D088039E70067086606031966
:102672003B2B3C2B3D2B66175D08DE005E07E70017
:10268200DC1F442B452B462B6714670803194A2B82
:102692004B2B5B2B670A031D4F2B502B582B003003
:1026A200DD000030DC000030DB000030DA00DC1737
:1026B200DD01632B0030DD000030DC000030DB0088
:1026C2000030DA00680867020318682B692B8F2B29
:1026D200661F6C2B6D2B712B8030DE005E08E606C8
:1026E2006808E9006708E8006908E7005608E90099
:1026F2005A08D6006908DA005708E9005B08D700D3
:102702006908DB005808E9005C08D8006908DC00A9
:102712005908E9005D08D9006908DD00E901670888
:10272200DE00DF015F08E10068085E02E000031CD2
:10273200E1036108803AFF0080307F02031DA32B72
:102742001A306002031CA62BA72BDE2B8312031365
:102752005908580457045604031DB02BB22B0130FC
:10276200B32B0030E9000030D9000030D80000302F
:10277200D7000030D6006708E800E62B691CC22BA0
:10278200C32BCA2B6908DE0003105E0C0138E90076
:10279200CC2B0310E90C561CCF2BD02BD12BE917D5
:1027A2000130DE00590DD90CD80CD70CD60CDE0B3B
:1027B200D32B0130DE005E08E8078312031367089B
:1027C2006802031CE52BE62BBF2B661BE92BEA2BC9
:1027D200332C6808031DEE2BEF2BF82B0030D900A9
:1027E2000030D8000030D7000030D6005F2D5A08E4
:1027F200D6075B0803110318013E0319012CD70702
:102802005C0803110318013E0319082CD8075D0860
:1028120003110318013E03190F2CD907591C122C5E
:10282200132CE72C691C162C172C1E2C6908DE00B1
:1028320003105E0C0138E900202C0310E90C561C31
:10284200232C242C252CE9170130DE00590DD90C3C
:10285200D80CD70CD60CDE0B272C0130DE005E081C
:10286200E807E72C5908803AFF005D08803A7F02AA
:10287200031D452C5C085802031D452C5B085702BA
:10288200031D452C5A0856020318482C492CA12C2A
:10289200FF30DE00FF30DF00FF30E000FF30E100FC
:1028A2005A08E2005B08E3005C08E4005D08E5000A
:1028B2005608E2025708031C570F602C612CE302F2
:1028C2005808031C580F662C672CE4025908031C95
:1028D200590F6C2C6D2CE5026208DE0763080318A1
:1028E200630F742C752CDF0764080318640F7A2CAD
:1028F2007B2CE00765080318650AE1076108D90027
:102902006008D8005F08D7005E08D6008030DE007D
:102912005E08E606E909E90A6908031D912C922C72
:10292200AF2C0130D607003003180130D707003032
:1029320003180130D807003003180130D907AF2C33
:102942005A08D6025B08031C5B0FD7025C08031C03
:102952005C0FD8025D08031C5D0FD90259085804A8
:1029620057045604031DB62CB72CE32C6908031D2B
:10297200BB2CBC2CE32C0030D9000030D800003036
:10298200D7000030D6005F2D0130DE000310D60DD7
:10299200D70DD80DD90DDE0BC72CE91FD12CD22CA7
:1029A200D32C5614691CD62CD72CDA2C0314E90D1F
:1029B200DC2C0310E90D68080319E02CE12CE32C50
:1029C2000130E802D81FE62CE72CC52CE701E91FED
:1029D200EB2CEC2CFA2C69087F390319F12CF22C20
:1029E200F52CE701E70AFA2C561CF82CF92CFA2CE4
:1029F200F22C67080319FE2CFF2C332D0130D60769
:102A0200003003180130D707003003180130D8070F
:102A1200003003180130D907591C102D112D332D08
:102A22005608DE005708DF005808E0005908E100A8
:102A32000130E200610DE10CE00CDF0CDE0CE20B78
:102A42001B2D6108D9006008D8005F08D7005E0816
:102A5200D600680A03192E2D2F2D332D0130DE00EA
:102A62005E08E807680A0319372D382D3D2D6808DE
:102A7200031D3C2D3D2D4B2D0030D9000030D800D8
:102A82000030D7000030D6006808031D492D4A2DBA
:102A92004B2DE601681C4E2D4F2D512DD817552D6B
:102AA2007F30DE005E08D8056808DE0003105E0C89
:102AB200D900E61F5D2D5E2D5F2DD9170800831604
:102AC2000313C400A930B7000A128A11962D2530CB
:102AD2004B0603196D2D6E2D7C2D440884004B0886
:102AE20083138000013083120313EA006A088316FD
:102AF2000313C407652DB801B901280884000A161A
:102B02008A110A200A168A112E3A031D892D8A2D4E
:102B1200DF2D3917013083120313EA006A08831686
:102B22000313A807C901CA01CE2D0A30F2000030F2
:102B3200F300831603134A08F5004908F4000A1645
:102B42008A1581220A168A11730883160313CA0092
:102B52007208C900280884000A168A110A200A1677
:102B62008A11D03E83120313EA00FF3003180030AB
:102B7200EB006A0883160313C9070318CA0A8312F3
:102B820003136B0883160313CA070130831203135E
:102B9200EA006A0883160313A807280884000A16A5
:102BA2008A110A200A168A110A168A15D7210A16CC
:102BB2008A110318DD2DDE2D962DE72DC901CA01DC
:102BC2003916E72D8316031339150B2E01308316A0
:102BD2000313A807FF30280784000A168A110A2067
:102BE2000A168A11CB0083120313EA00EB016B0869
:102BF200003A0319FD2D652D6A08003A0319FD2FCD
:102C0200643A03190B2E023A0319E32D0F3A031902
:102C12000B2E652D00308316031338058312031320
:102C2200EA00073083160313390583120313EB00FE
:102C32006A086B0403191E2E212E0A128A11342CE3
:102C420083160313391E262E272E2B2E0630C9007B
:102C52000030CA003708840083130008C500840AC4
:102C62000008C600840A0008C700840A0008C800D9
:102C7200043083120313EA006A0883160313B707AA
:102C82004808F5004708F4004608F3004508F2003A
:102C92000030F9000030F8000030F7000030F60094
:102CA2000A168A11C1200A168A110318592E5A2EA1
:102CB200772E831603134808F5004708F4004608E8
:102CC200F3004508F2000A168A15AF210A168A1186
:102CD200750883160313C8007408C7007308C6007A
:102CE2007208C5000330B8040030B9048316031318
:102CF200BA01BB014808F5004708F4004608F30092
:102D02004508F2000030F9000030F8000030F7000A
:102D12000030F6000A168A1593230A168A11031840
:102D2200932E942E942F031083160313470D480DF0
:102D3200823EBA00FF3003180030BB00FF30BA07F2
:102D42000318BB0AFF30BB070330F2000030F30068
:102D52003B08F5003A08F4000A168A1581220A1681
:102D62008A11730883160313BB007208BA000A3073
:102D720083120313A0000030A100831603133B0843
:102D820083120313A300831603133A088312031357
:102D9200A2000A168A15B0250A168A118312031395
:102DA200210883160313BB00831203132008831622
:102DB2000313BA00BB1FDE2EDF2EE52EFF30BA074B
:102DC2000318BB0AFF30BB073A03FF3A0A128A15FF
:102DD2009D240A168A1183120313450883160313CE
:102DE200BF0083120313440883160313BE00831229
:102DF2000313430883160313BD008312031342080F
:102E020083160313BC00480883120313AB00831616
:102E12000313470883120313AA00831603134608F9
:102E220083120313A90083160313450883120313A5
:102E3200A800831603133F0883120313AF008316FF
:102E420003133E0883120313AE00831603133D08D7
:102E520083120313AD00831603133C08831203137A
:102E6200AC000A128A1558210A168A11831203131A
:102E72002B0883160313BF00831203132A08831639
:102E82000313BE0083120313290883160313BD0024
:102E920083120313280883160313BC003F08F500AE
:102EA2003E08F4003D08F3003C08F2003F30F90010
:102EB2008030F8000030F7000030F6000A168A1160
:102EC200C1200A168A110318672F682F712FFF304D
:102ED20083160313BA070318BB0AFF30BB07942FEC
:102EE200831603133F08F5003E08F4003D08F30083
:102EF2003C08F2004130F9002030F8000030F700C1
:102F02000030F6000A168A11C1200A168A11031C23
:102F12008B2F8C2F942F013083160313BA070318BB
:102F2200BB0A0030BB07831603134A08803AFF002E
:102F320080307F02031D9F2F0D3049020318A22FFC
:102F4200A32FEA2F8316031349080A128A11B12507
:102F52000A168A11831203134508D9004408D800BF
:102F62004308D7004208D600831603134808831289
:102F72000313DD0083160313470883120313DC00D7
:102F820083160313460883120313DB00831603130D
:102F9200450883120313DA000A168A1108230A1657
:102FA2008A1183120313590883160313C80083126C
:102FB2000313580883160313C70083120313570819
:102FC20083160313C60083120313560883160313D2
:102FD200C500831603133B08803AFF0080307F024E
:102FE200031DF52F0A303A020318FA2F0A128A112A
:0E2FF2001D280A128A116E280A128A11AA2DB1
:10331A00831203138C1E922993298D291A080800F7
:10332A008312031398171813981218169A01080093
:10333A0064008001840A04060319003404069E29E5
:10334A00F200831203130C1EAB29AC29A6297208BA
:10335A009900080075087404730472040319B629E5
:10336A00B729B9298030F506080000300A168A15EF
:10337A0041220A168A1501300A168A1541220A16AE
:10338A008A1508008316031398131813981618122F
:10339A001815981018108316031787118312031330
:1033AA0099010800F300F2013A3073020318DE298A
:1033BA00DF29E72930307302031CE429E529E729CC
:1033CA00F201F20A720C0800F400831203130914C2
:1033DA0074080A128A11BE270A168A158312031361
:1033EA008914F729F8290000831203138910FD298B
:1033FA00FE2900001030F300F30B012A0000080038
:10340A00F400F501172A75087407F300730884009D
:10341A0000080A168A15A5210A168A150130F30032
:10342A007308F50775087407F3007308840083139B
:10343A000008031D212A222A082A080083160317D6
:10344A008801890183120313880189018701831680
:10345A000313850107138717880189010B178C1637
:10346A00831203138C128B17831603130C12831205
:10347A0003138C160C160800F500831203130910A7
:10348A0075080A128A11BE270A168A1583120313AF
:10349A0089144F2A502A0000831203138910552ACF
:1034AA00562A00000330F4009730F300F30B5B2A2E
:1034BA00F40B5B2A602A0800F7007703031D662ACB
:1034CA00672A712A7608803EF80078080A168A1553
:1034DA0041220A168A15802A02307706031D762AA7
:1034EA00772A802A7608C03EF80078080A168A15D4
:1034FA0041220A168A150800F601F701721C862A6B
:10350A00872A8D2A7408F6070318F70A7508F70739
:10351A0001300310F40DF50DFF3E031D8E2A013014
:10352A000310F30CF20CFF3E031D952A7208730474
:10353A00031DA02AA12A832A7708F3007608F2003D
:10354A000800FA00F601F7017208F400F5017408A0
:10355A00F8007508F9007A1CB32AB42ABA2A78083E
:10356A00F6070318F70A7908F70701300310F80D70
:10357A00F90DFF3E031DBB2A0310FA0C7A08031D3E
:10358A00C72AC82AB02A7708F3007608F20008008A
:10359A00720873040319D22AD32A022BF701F70AF5
:1035AA00E12A01300310F20DF30DFF3E031DD72A65
:1035BA000130F6007608F707F31FE42AE52AD62A2F
:1035CA0073087502031DEB2A72087402031CEE2AA3
:1035DA00EF2AF52A7208F4027308031CF503F502B0
:1035EA0001300310F30CF20CFF3E031DF62A0130E2
:1035FA00F702031D012B022BE52A7508F300740854
:10360A00F200080083120313A001A101302B200845
:10361A007507F8007608F7000318F70AA01F162B9B
:10362A00F7037708F900790883120313FF00780873
:10363A0084000A168A1100200A168A150A168A15A3
:10364A00E9210A168A15013083120313A007031809
:10365A00A10A0030A10720087507F8007608F700CC
:10366A000318F70AA01F3A2BF7037708F90079081D
:10367A0083120313FF00780884000A168A110020B7
:10368A000A168A15003A031D4B2B4C2B0C2B0800EB
:10369A0083120313A501A601200821040319562B3E
:1036AA00572B8E2BA401A40A652B01300310A00D01
:1036BA00A10DFF3E031D5B2B0130F8007808A4071B
:1036CA00A11F682B692B5A2B01300310A50DA60DDB
:1036DA00FF3E031D6A2B21082302031D762B2008B7
:1036EA002202031C792B7A2B812B2008A2022108A3
:1036FA00031CA303A302251401300310A10CA00C80
:10370A00FF3E031D822B0130A402031D8D2B8E2B3D
:10371A00692B2608A1002508A000080000307205C0
:10372A0083120313A00000307305A10080307405D2
:10373A00A2007F307505A300230822042104200477
:10374A00031DA82BA92BB12B0030F5000030F40083
:10375A000030F3000030F20000307605A00000309F
:10376A007705A10080307805A2007F307905A30093
:10377A002308220421042004031DC42BC52BCD2BAE
:10378A000030F9000030F8000030F7000030F60091
:10379A0079087506031DDB2B78087406031DDB2BDD
:1037AA0077087306031DDB2B760872060319DE2BD6
:1037BA00DF2BE12B0310E22B031408008030831661
:1037CA000313A306270883120313D90083160313CE
:1037DA00260883120313D8008316031325088312BD
:1037EA000313D70083160313240883120313D60086
:1037FA0083160313230883120313DD0083160313AE
:10380A00220883120313DC00831603132108831290
:10381A000313DB0083160313200883120313DA0051
:10382A000A168A1108230A168A15831203135908DD
:10383A0083160313A3008312031358088316031372
:10384A00A20083120313570883160313A1008312DD
:10385A000313560883160313A000080083120313E8
:10386A00280827042604250403193C2C3D2C802C07
:10387A00AE01AE0A4D2C0130AD000310A50DA60D08
:10388A00A70DA80DAD0B422C0130AD002D08AE07D7
:10389A00A81F502C512C402C28082C02031D5F2CE9
:1038AA0027082B02031D5F2C26082A02031D5F2C02
:1038BA0025082902031C622C632C712C2508A902F5
:1038CA002608031C260FAA022708031C270FAB028F
:1038DA002808031C280FAC0201300310A80CA70CFF
:1038EA00A60CA50CFF3E031D722C0130AE02031D6F
:1038FA007F2C802C512C2C08A8002B08A7002A0802
:10390A00A6002908A5000800F801F51F8D2C8E2CA9
:10391A00952CF409F509F40A0319F50AF801F80ACD
:10392A00F31F982C992C9E2CF209F309F20A031919
:10393A00F30A720873040319A32CA42CD32CF701DD
:10394A00F70AB22C01300310F20DF30DFF3E031DEE
:10395A00A82C0130F6007608F707F31FB52CB62C11
:10396A00A72C73087502031DBC2C72087402031C71
:10397A00BF2CC02CC62C7208F4027308031CF50372
:10398A00F50201300310F30CF20CFF3E031DC72CA5
:10399A000130F702031DD22CD32CB62C7808031958
:1039AA00D72CD82CDD2CF409F509F40A0319F50AE9
:1039BA007508F3007408F20008001A30F700F830AE
:1039CA00F600F60BE62CF70BE62C000030300A1650
:1039DA008A1541220A168A150730F7007D30F6004B
:1039EA00F60BF52CF70BF52C30300A168A15412206
:1039FA000A168A152130F600F60B012D30300A1608
:103A0A008A1541220A168A152130F600F60B0B2D6B
:103A1A0038300A168A1541220A168A151330F6001A
:103A2A00F60B152D182D08300A168A1541220A168A
:103A3A008A151330F600F60B202D232D01300A16B5
:103A4A008A1541220A168A150730F7007D30F600DA
:103A5A00F60B2D2DF70B2D2D06300A168A1541224D
:103A6A000A168A151330F600F60B392D3C2D0C3048
:103A7A000A168A1541220A168A151330F600F60B21
:103A8A00442D472D0800003083120313A300003091
:103A9A00A2000030A1000030A0007508740473046D
:103AAA0072040319592D5A2DA72DA401A40A6A2DAF
:103ABA000130FA000310F20DF30DF40DF50DFA0BB7
:103ACA005F2D0130FA007A08A407F51F6D2D6E2DBF
:103ADA005D2D0130FA000310A00DA10DA20DA30D5A
:103AEA00FA0B702D75087902031D852D740878026A
:103AFA00031D852D73087702031D852D7208760232
:103B0A00031C882D892D982D7208F6027308031C50
:103B1A00730FF7027408031C740FF8027508031C6C
:103B2A00750FF902201401300310F50CF40CF30C94
:103B3A00F20CFF3E031D992D0130A402031DA62D90
:103B4A00A72D6E2D2308F5002208F4002108F300A2
:103B5A002008F200080083120313A501A11FB62D45
:103B6A00B72DBE2DA009A109A00A0319A10AA50112
:103B7A00A50AA31FC12DC22DCB2DA209A309A20AF2
:103B8A000319A30A0130F9007908A506A601A701BD
:103B9A00200821040319D22DD32D0A2EA401A40A28
:103BAA00E12D01300310A00DA10DFF3E031DD72DFD
:103BBA000130F9007908A407A11FE42DE52DD62DBF
:103BCA0001300310A60DA70DFF3E031DE62D2108A7
:103BDA002302031DF22D20082202031CF52DF62DC7
:103BEA00FD2D2008A2022108031CA303A302261408
:103BFA0001300310A10CA00CFF3E031DFE2D013065
:103C0A00A402031D092E0A2EE52D250803190E2EDE
:103C1A000F2E142EA609A709A60A0319A70A270810
:103C2A00A1002608A0000800031083120313570DF1
:103C3A00580DDE005E08031D232E242E2D2E003083
:103C4A00D8000030D7000030D6000030D500902EC2
:103C5A005508D9005608DA005708DB005808DC0076
:103C6A001F300310DC0CDB0CDA0CD90CFF3E031DF1
:103C7A00362E5908DD00D717FF30D505FF30D60597
:103C8A00FF30D7050030D8059630DE02DE1F4E2EF3
:103C9A004F2E692E5E08803A973E0318552E562EEF
:103CAA00572E242E01300310D80CD70CD60CD50C65
:103CBA00FF3E031D582E0130D9005908DE07031DA7
:103CCA00672E682E572E802E20305E02031C6E2E21
:103CDA006F2E7B2E242E0130D9000310D50DD60D60
:103CEA00D70DD80DD90B722E0130DE025E08031DE6
:103CFA007F2E802E702E5D080319842E852E902E1D
:103D0A00D509D609D709D809D50A0319D60A031934
:103D1A00D70A0319D80A0800720883120313A000ED
:103D2A007308A1007408A2000310210D220DA80037
:103D3A002808031DA12EA22EAB2E0030F50000305C
:103D4A00F4000030F3000030F200472F7608A0009C
:103D5A007708A1007808A2000310210D220DA70000
:103D6A002708031DB92EBA2EBB2EA22EF317FF3039
:103D7A00F205FF30F3050030F405F717FF30F605BA
:103D8A00FF30F7050030F8050030A6000030A50026
:103D9A000030A4000030A3007F30A8029830270723
:103DAA00A0002008A8021830A7000130A0000310C4
:103DBA00A30DA40DA50DA60DA00BDC2E7808740288
:103DCA00031DED2E77087302031DED2E760872028D
:103DDA00031CF02EF12EFC2E7608F2027708031C43
:103DEA00770FF3027808031C780AF40223140130CF
:103DFA000310F20DF30DF40DFF3E031DFD2E0130ED
:103E0A00A702031D092F0A2FDA2EA81F0D2F0E2F26
:103E1A00282F2808803A973E0318142F152F162F9B
:103E2A00A22E01300310A60CA50CA40CA30CFF3E75
:103E3A00031D172F0130A0002008A807031D262FF5
:103E4A00272F162F3F2F18302802031C2D2F2E2F15
:103E5A003A2FA22E0130A0000310A30DA40DA50D28
:103E6A00A60DA00B312F0130A8022808031D3E2FF2
:103E7A003F2F2F2F2608F5002508F4002408F30009
:103E8A002308F20008000310740D750D8312031342
:103E9A00A5002508031D522F532F5C2F0030F50073
:103EAA000030F4000030F3000030F200FF2F03105E
:103EBA00780D790DA4002408031D642F652F662F41
:103ECA00532FF417FF30F205FF30F305FF30F405E6
:103EDA000030F505F817FF30F605FF30F705FF301B
:103EEA00F8050030F9050030A3000030A2000030C8
:103EFA00A1000030A0007F30A502A0302407FA00FC
:103F0A007A08A5022030A4000130FA000310A00D9F
:103F1A00A10DA20DA30DFA0B8B2F79087502031DB3
:103F2A00A02F78087402031DA02F77087302031DBF
:103F3A00A02F76087202031CA32FA42FB32F760892
:103F4A00F2027708031C770FF3027808031C780F34
:103F5A00F4027908031C790FF50220140130FA00E3
:103F6A000310F20DF30DF40DF50DFA0BB52F013018
:103F7A00A402031DC12FC22F892FA51FC52FC62F2B
:103F8A00E02F2508803A9F3E0318CC2FCD2FCE2F45
:103F9A00532F01300310A30CA20CA10CA00CFF3E5E
:103FAA00031DCF2F0130FA007A08A507031DDE2F63
:103FBA00DF2FCE2FF72F20302502031CE52FE62F07
:103FCA00F22F532F0130FA000310A00DA10DA20DFC
:103FDA00A30DFA0BE92F0130A5022508031DF62FC0
:103FEA00F72FE72F2308F5002208F4002108F30031
:0E3FFA002008F2000800FF3FFF3FFF3FFF3F9F
:04400E00D420FF3F7C
:00000001FF
